1070015730KMUTUAL DE SEGUROS DE CHILE                                  201903                                                                                                                                                                                                                                                                                                                                                                                                                                                                                                                                                                                                                                                                                                                                                                                                                                                                                     
2CDT000000355700120110131201101310942710003BE        BENER-B2                      200106150026920010911B2        CL0000000001000000000000000003006133UF    NN         NN00000000OTRA CLAUSULA DE AHORRO FAMILIAR   NO APLICA                     NACSNRAA-            M2022061500057500TIC365      NON    CUI   CANONO000000000RISKAMERIC   0764625463   000000000000000000000000000000      000000000000000             0000000000000    00  000000000X000000000000000000000000000000000000000000000000000000000000000000000000000000000000000000000000000000000000000000000000000000000000000000000000000000  000000000000X                                                            0000000000000000000000000000                                                            10023000000017479771+0056000+00560000000000030623320000008441550+00130000000009051316+00000000036870000000008438DCV                                                            S
2CDT000000358300120110228201102280942710003BE        BENER-B2                      200106150026920010911B2        CL0000000000500000000000000001503067UF    NN         NN00000000OTRA CLAUSULA DE AHORRO FAMILIAR   NO APLICA                     NACSNRAA-            M2022061500057500TIC365      NON    CUI   CANONO000000000RISKAMERIC   0764625463   000000000000000000000000000000      000000000000000             0000000000000    00  000000000X000000000000000000000000000000000000000000000000000000000000000000000000000000000000000000000000000000000000000000000000000000000000000000000000000000  000000000000X                                                            0000000000000000000000000000                                                            10023000000008796960+0056000+00560000000000015311660000004220775+00130000000004525658+00000000018430000000004219DCV                                                            S
2CDT000000365500120110429201104290942710003BE        BENER-B2                      200106150026920010911B2        CL0000000001000000000000000003006133UF    NN         NN00000000OTRA CLAUSULA DE AHORRO FAMILIAR   NO APLICA                     NACSNRAA-            M2022061500057500TIC365      NON    CUI   CANONO000000000RISKAMERIC   0764625463   000000000000000000000000000000      000000000000000             0000000000000    00  000000000X000000000000000000000000000000000000000000000000000000000000000000000000000000000000000000000000000000000000000000000000000000000000000000000000000000  000000000000X                                                            0000000000000000000000000000                                                            10023000000017900201+0056000+00560000000000030623320000008441550+00130000000009051316+00000000036870000000008438DCV                                                            S
2CDT000000384300120110831201108310942710003BE        BENER-B2                      200106150026920010911B2        CL0000000000500000000000000001503067UF    NN         NN00000000OTRA CLAUSULA DE AHORRO FAMILIAR   NO APLICA                     NACSNRAA-            M2022061500057500TIC365      NON    CUI   CANONO000000000RISKAMERIC   0764625463   000000000000000000000000000000      000000000000000             0000000000000    00  000000000X000000000000000000000000000000000000000000000000000000000000000000000000000000000000000000000000000000000000000000000000000000000000000000000000000000  000000000000X                                                            0000000000000000000000000000                                                            10023000000008697268+0056000+00560000000000015311660000004220775+00130000000004525658+00000000018430000000004219DCV                                                            S
2CDT000000398700120111028201110280942710003BE        BENER-B2                      200106150026920010911B2        CL0000000000500000000000000001503067UF    NN         NN00000000OTRA CLAUSULA DE AHORRO FAMILIAR   NO APLICA                     NACSNRAA-            M2022061500057500TIC365      NON    CUI   CANONO000000000RISKAMERIC   0764625463   000000000000000000000000000000      000000000000000             0000000000000    00  000000000X000000000000000000000000000000000000000000000000000000000000000000000000000000000000000000000000000000000000000000000000000000000000000000000000000000  000000000000X                                                            0000000000000000000000000000                                                            10023000000008820096+0056000+00560000000000015311660000004220775+00130000000004525658+00000000018430000000004219DCV                                                            S
2CDT000000405400120111130201111300942710003BE        BENER-B2                      200106150026920010911B2        CL0000000000500000000000000001503067UF    NN         NN00000000OTRA CLAUSULA DE AHORRO FAMILIAR   NO APLICA                     NACSNRAA-            M2022061500057500TIC365      NON    CUI   CANONO000000000RISKAMERIC   0764625463   000000000000000000000000000000      000000000000000             0000000000000    00  000000000X000000000000000000000000000000000000000000000000000000000000000000000000000000000000000000000000000000000000000000000000000000000000000000000000000000  000000000000X                                                            0000000000000000000000000000                                                            10039000000008951917+0055000+00550000000000015336100000004227513+00130000000004525658+00000000018480000000004226DCV                                                            S
2CDT000000419400120120131201201310970300007BB        BESTJ41008                    200810010000000000000J4        CL0000000000500000000000000000000000UF    NN         NN00000000OTRA CLAUSULA DE AHORRO FAMILIAR   NO APLICA                     NACSNRAAA            M2028100100040000TIC365      NON    CUI   CANONO000000000RISKAMERIC   0764625463   000000000000000000000000000000      000000000000000             0000000000000    00  000000000X000000000000000000000000000000000000000000000000000000000000000000000000000000000000000000000000000000000000000000000000000000000000000000000000000000  000000000000X                                                            0000000000000000000000000000                                                            09665000000010768446+0044500+00445000000000049273490000013582613+00156000000016972294+00000000024490000000013581DCV                                                            S
2CDT000000424800120120229201202290970300007BB        BESTJ41008                    200810010000000000000J4        CL0000000000500000000000000000000000UF    NN         NN00000000OTRA CLAUSULA DE AHORRO FAMILIAR   NO APLICA                     NACSNRAAA            M2028100100040000TIC365      NON    CUI   CANONO000000000RISKAMERIC   0764625463   000000000000000000000000000000      000000000000000             0000000000000    00  000000000X000000000000000000000000000000000000000000000000000000000000000000000000000000000000000000000000000000000000000000000000000000000000000000000000000000  000000000000X                                                            0000000000000000000000000000                                                            09665000000010831697+0044500+00445000000000049273490000013582613+00156000000016972294+00000000024490000000013581DCV                                                            S
2CDT000000429800120120330201203300970300007BB        BESTJ41008                    200810010000000000000J4        CL0000000001000000000000000000000000UF    NN         NN00000000OTRA CLAUSULA DE AHORRO FAMILIAR   NO APLICA                     NACSNRAAA            M2028100100040000TIC365      NON    CUI   CANONO000000000RISKAMERIC   0764625463   000000000000000000000000000000      000000000000000             0000000000000    00  000000000X000000000000000000000000000000000000000000000000000000000000000000000000000000000000000000000000000000000000000000000000000000000000000000000000000000  000000000000X                                                            0000000000000000000000000000                                                            09665000000021808105+0044500+00445000000000098546990000027165226+00156000000033944587+00000000048980000000027160DCV                                                            S
2CDT000000440300120120531201205310970300007BB        BESTJ41008                    200810010000000000000J4        CL0000000000500000000000000000000000UF    NN         NN00000000OTRA CLAUSULA DE AHORRO FAMILIAR   NO APLICA                     NACSNRAAA            M2028100100040000TIC365      NON    CUI   CANONO000000000RISKAMERIC   0764625463   000000000000000000000000000000      000000000000000             0000000000000    00  000000000X000000000000000000000000000000000000000000000000000000000000000000000000000000000000000000000000000000000000000000000000000000000000000000000000000000  000000000000X                                                            0000000000000000000000000000                                                            09665000000010802952+0044500+00445000000000049273490000013582613+00156000000016972294+00000000024490000000013581DCV                                                            S
2CDT000000447300120120629201206290970300007BB        BESTJ41008                    200810010000000000000J4        CL0000000000500000000000000000000000UF    NN         NN00000000OTRA CLAUSULA DE AHORRO FAMILIAR   NO APLICA                     NACSNRAAA            M2028100100040000TIC365      NON    CUI   CANONO000000000RISKAMERIC   0764625463   000000000000000000000000000000      000000000000000             0000000000000    00  000000000X000000000000000000000000000000000000000000000000000000000000000000000000000000000000000000000000000000000000000000000000000000000000000000000000000000  000000000000X                                                            0000000000000000000000000000                                                            09665000000010843217+0044500+00445000000000049273490000013582613+00156000000016972294+00000000024490000000013581DCV                                                            S
2CDT000000454700120120731201207310970300007BB        BESTJ41008                    200810010000000000000J4        CL0000000001000000000000000000000000UF    NN         NN00000000OTRA CLAUSULA DE AHORRO FAMILIAR   NO APLICA                     NACSNRAAA            M2028100100040000TIC365      NON    CUI   CANONO000000000RISKAMERIC   0764625463   000000000000000000000000000000      000000000000000             0000000000000    00  000000000X000000000000000000000000000000000000000000000000000000000000000000000000000000000000000000000000000000000000000000000000000000000000000000000000000000  000000000000X                                                            0000000000000000000000000000                                                            09665000000021723882+0044500+00445000000000098546990000027165226+00156000000033944587+00000000048980000000027160DCV                                                            S
2CDT00000046210012012083120120831061704000KBE        BCODE-B                       200504010041120050425B         CL0000000000500000000000000005000000UF    NN         NN00000000OTRA CLAUSULA DE AHORRO FAMILIAR   NO APLICA                     NACSNRAAA            M2025040100040000TIC365      NON    CUI   CANONO000000000RISKAMERIC   0764625463   000000000000000000000000000000      000000000000000             0000000000000    00  000000000X000000000000000000000000000000000000000000000000000000000000000000000000000000000000000000000000000000000000000000000000000000000000000000000000000000  000000000000X                                                            0000000000000000000000000000                                                            09867000000011186246+0043000+00430000000000050312840000013869116+00145000000016074513+00000000025340000000013866DCV                                                            S
2CDT00000046700012012092820120928061704000KBE        BCODE-B                       200504010041120050425B         CL0000000000500000000000000005000000UF    NN         NN00000000OTRA CLAUSULA DE AHORRO FAMILIAR   NO APLICA                     NACSNRAAA            M2025040100040000TIC365      NON    CUI   CANONO000000000RISKAMERIC   0764625463   000000000000000000000000000000      000000000000000             0000000000000    00  000000000X000000000000000000000000000000000000000000000000000000000000000000000000000000000000000000000000000000000000000000000000000000000000000000000000000000  000000000000X                                                            0000000000000000000000000000                                                            09867000000011236769+0043000+00430000000000050312840000013869116+00145000000016074513+00000000025340000000013866DCV                                                            S
2CDT00000047470012012103120121031061704000KBE        BCODE-B                       200504010041120050425B         CL0000000001000000000000000010000000UF    NN         NN00000000OTRA CLAUSULA DE AHORRO FAMILIAR   NO APLICA                     NACSNRAAA            M2025040100040000TIC365      NON    CUI   CANONO000000000RISKAMERIC   0764625463   000000000000000000000000000000      000000000000000             0000000000000    00  000000000X000000000000000000000000000000000000000000000000000000000000000000000000000000000000000000000000000000000000000000000000000000000000000000000000000000  000000000000X                                                            0000000000000000000000000000                                                            09867000000022248092+0043000+00430000000000100625680000027738233+00145000000032149025+00000000050660000000027733DCV                                                            S
2CDT00000048000012012113020121130061704000KBE        BCODE-B                       200504010041120050425B         CL0000000000500000000000000005000000UF    NN         NN00000000OTRA CLAUSULA DE AHORRO FAMILIAR   NO APLICA                     NACSNRAAA            M2025040100040000TIC365      NON    CUI   CANONO000000000RISKAMERIC   0764625463   000000000000000000000000000000      000000000000000             0000000000000    00  000000000X000000000000000000000000000000000000000000000000000000000000000000000000000000000000000000000000000000000000000000000000000000000000000000000000000000  000000000000X                                                            0000000000000000000000000000                                                            09867000000011235381+0043000+00430000000000050312840000013869116+00145000000016074513+00000000025340000000013866DCV                                                            S
2CDT00000048570012012123120121231061704000KBE        BCODE-B                       200504010041120050425B         CL0000000000500000000000000005000000UF    NN         NN00000000OTRA CLAUSULA DE AHORRO FAMILIAR   NO APLICA                     NACSNRAAA            M2025040100040000TIC365      NON    CUI   CANONO000000000RISKAMERIC   0764625463   000000000000000000000000000000      000000000000000             0000000000000    00  000000000X000000000000000000000000000000000000000000000000000000000000000000000000000000000000000000000000000000000000000000000000000000000000000000000000000000  000000000000X                                                            0000000000000000000000000000                                                            09867000000011255663+0043000+00430000000000050312840000013869116+00145000000016074513+00000000025340000000013866DCV                                                            S
2CDT00000049430012013013120130131061704000KBE        BCODE-B                       200504010041120050425B         CL0000000001000000000000000010000000UF    NN         NN00000000OTRA CLAUSULA DE AHORRO FAMILIAR   NO APLICA                     NACSNRAAA            M2025040100040000TIC365      NON    CUI   CANONO000000000RISKAMERIC   0764625463   000000000000000000000000000000      000000000000000             0000000000000    00  000000000X000000000000000000000000000000000000000000000000000000000000000000000000000000000000000000000000000000000000000000000000000000000000000000000000000000  000000000000X                                                            0000000000000000000000000000                                                            09867000000022558905+0043000+00430000000000100625680000027738233+00145000000032149025+00000000050660000000027733DCV                                                            S
2CDT00000049900012013022820130228061704000KBE        BCODE-B                       200504010041120050425B         CL0000000002000000000000000020000000UF    NN         NN00000000OTRA CLAUSULA DE AHORRO FAMILIAR   NO APLICA                     NACSNRAAA            M2025040100040000TIC365      NON    CUI   CANONO000000000RISKAMERIC   0764625463   000000000000000000000000000000      000000000000000             0000000000000    00  000000000X000000000000000000000000000000000000000000000000000000000000000000000000000000000000000000000000000000000000000000000000000000000000000000000000000000  000000000000X                                                            0000000000000000000000000000                                                            09867000000045325678+0043000+00430000000000201251360000055476466+00145000000064298050+00000000101330000000055466DCV                                                            S
2CDT00000051260012013043020130430061704000KBE        BCODE-B                       200504010041120050425B         CL0000000001500000000000000015000000UF    NN         NN00000000OTRA CLAUSULA DE AHORRO FAMILIAR   NO APLICA                     NACSNRAAA            M2025040100040000TIC365      NON    CUI   CANONO000000000RISKAMERIC   0764625463   000000000000000000000000000000      000000000000000             0000000000000    00  000000000X000000000000000000000000000000000000000000000000000000000000000000000000000000000000000000000000000000000000000000000000000000000000000000000000000000  000000000000X                                                            0000000000000000000000000000                                                            09867000000033696867+0043000+00430000000000150938520000041607349+00145000000048223538+00000000076000000000041599DCV                                                            S
2CDT00000052490012013062820130628061704000KBE        BCODE-B                       200504010041120050425B         CL0000000002500000000000000025000000UF    NN         NN00000000OTRA CLAUSULA DE AHORRO FAMILIAR   NO APLICA                     NACSNRAAA            M2025040100040000TIC365      NON    CUI   CANONO000000000RISKAMERIC   0764625463   000000000000000000000000000000      000000000000000             0000000000000    00  000000000X000000000000000000000000000000000000000000000000000000000000000000000000000000000000000000000000000000000000000000000000000000000000000000000000000000  000000000000X                                                            0000000000000000000000000000                                                            09867000000056329746+0043000+00430000000000251564190000069345582+00145000000080372563+00000000126660000000069333DCV                                                            S
2CDT000000540300120130830201308300970300007BB        BESTJ60109                    200901010000000000000J6        CL0000000002000000000000000000000000UF    NN         NN00000000OTRA CLAUSULA DE AHORRO FAMILIAR   NO APLICA                     NACSNRAAA            M2029010100040000TIC365      NON    CUI   CANONO000000000RISKAMERIC   0764625463   000000000000000000000000000000      000000000000000             0000000000000    00  000000000X000000000000000000000000000000000000000000000000000000000000000000000000000000000000000000000000000000000000000000000000000000000000000000000000000000  000000000000X                                                            0000000000000000000000000000                                                            09843000000045332108+0042000+00420000000000198750610000054787117+00158000000067516786+00000000099930000000054777DCV                                                            S
2CDT000000552000120131030201310300970300007BB        BESTJ60109                    200901010000000000000J6        CL0000000002000000000000000000000000UF    NN         NN00000000OTRA CLAUSULA DE AHORRO FAMILIAR   NO APLICA                     NACSNRAAA            M2029010100040000TIC365      NON    CUI   CANONO000000000RISKAMERIC   0764625463   000000000000000000000000000000      000000000000000             0000000000000    00  000000000X000000000000000000000000000000000000000000000000000000000000000000000000000000000000000000000000000000000000000000000000000000000000000000000000000000  000000000000X                                                            0000000000000000000000000000                                                            09843000000045939204+0042000+00420000000000198750610000054787117+00158000000067516786+00000000099930000000054777DCV                                                            S
2CDT000000572400120140131201401310970300007BB        BESTJ60109                    200901010000000000000J6        CL0000000001500000000000000000000000UF    NN         NN00000000OTRA CLAUSULA DE AHORRO FAMILIAR   NO APLICA                     NACSNRAAA            M2029010100040000TIC365      NON    CUI   CANONO000000000RISKAMERIC   0764625463   000000000000000000000000000000      000000000000000             0000000000000    00  000000000X000000000000000000000000000000000000000000000000000000000000000000000000000000000000000000000000000000000000000000000000000000000000000000000000000000  000000000000X                                                            0000000000000000000000000000                                                            09843000000034498420+0042000+00420000000000149062960000041090337+00158000000050637589+00000000074950000000041083DCV                                                            S
2CDT00000059600012014053020140530061704000KBE        BCODE-B                       200504010041120050425B         CL0000000002000000000000000020000000UF    NN         NN00000000OTRA CLAUSULA DE AHORRO FAMILIAR   NO APLICA                     NACSNRAAA            M2025040100040000TIC365      NON    CUI   CANONO000000000RISKAMERIC   0764625463   000000000000000000000000000000      000000000000000             0000000000000    00  000000000X000000000000000000000000000000000000000000000000000000000000000000000000000000000000000000000000000000000000000000000000000000000000000000000000000000  000000000000X                                                            0000000000000000000000000000                                                            09893000000047299206+0042500+00425000000000201781660000055622649+00145000000064298050+00000000101760000000055613DCV                                                            S
2CDT00000060870012014073120140731061704000KBE        BCODE-B                       200504010041120050425B         CL0000000001000000000000000010000000UF    NN         NN00000000OTRA CLAUSULA DE AHORRO FAMILIAR   NO APLICA                     NACSNRAAA            M2025040100040000TIC365      NON    CUI   CANONO000000000RISKAMERIC   0764625463   000000000000000000000000000000      000000000000000             0000000000000    00  000000000X000000000000000000000000000000000000000000000000000000000000000000000000000000000000000000000000000000000000000000000000000000000000000000000000000000  000000000000X                                                            0000000000000000000000000000                                                            09908000000024011920+0042200+00422000000000101043800000027853492+00145000000032149025+00000000051010000000027848DCV                                                            S
2CDT000000620400120140930201409300970300007BB        BESTJ60109                    200901010000000000000J6        CL0000000002000000000000000000000000UF    NN         NN00000000OTRA CLAUSULA DE AHORRO FAMILIAR   NO APLICA                     NACSNRAAA            M2029010100040000TIC365      NON    CUI   CANONO000000000RISKAMERIC   0764625463   000000000000000000000000000000      000000000000000             0000000000000    00  000000000X000000000000000000000000000000000000000000000000000000000000000000000000000000000000000000000000000000000000000000000000000000000000000000000000000000  000000000000X                                                            0000000000000000000000000000                                                            09843000000047775947+0042000+00420000000000198750610000054787117+00158000000067516786+00000000099930000000054777DCV                                                            S
2CDT000000634600120141128201411280970300007BB        BESTJ60109                    200901010000000000000J6        CL0000000002000000000000000000000000UF    NN         NN00000000OTRA CLAUSULA DE AHORRO FAMILIAR   NO APLICA                     NACSNRAAA            M2029010100040000TIC365      NON    CUI   CANONO000000000RISKAMERIC   0764625463   000000000000000000000000000000      000000000000000             0000000000000    00  000000000X000000000000000000000000000000000000000000000000000000000000000000000000000000000000000000000000000000000000000000000000000000000000000000000000000000  000000000000X                                                            0000000000000000000000000000                                                            09843000000048829469+0042000+00420000000000198750610000054787117+00158000000067516786+00000000099930000000054777DCV                                                            S
2CDT000000649600120150130201501300612190003BE        BMETR-A                       200107150025720010703A         CL0000000002500000000000000018124999UF    NN         NN00000000OTRA CLAUSULA DE AHORRO FAMILIAR   NO APLICA                     NACSNRAAA            M2026071500056000TIC365      NON    CUI   CANONO000000000RISKAMERIC   0764625463   000000000000000000000000000000      000000000000000             0000000000000    00  000000000X000000000000000000000000000000000000000000000000000000000000000000000000000000000000000000000000000000000000000000000000000000000000000000000000000000  000000000000X                                                            0000000000000000000000000000                                                            10544000000058957643+0042300+00423000000000193259950000053273574+00124000000060109608+00000000000000000000053274DCV                                                            S
2CDT000000657100120150227201502270970300007BB        BESTJ60109                    200901010000000000000J6        CL0000000001000000000000000000000000UF    NN         NN00000000OTRA CLAUSULA DE AHORRO FAMILIAR   NO APLICA                     NACSNRAAA            M2029010100040000TIC365      NON    CUI   CANONO000000000RISKAMERIC   0764625463   000000000000000000000000000000      000000000000000             0000000000000    00  000000000X000000000000000000000000000000000000000000000000000000000000000000000000000000000000000000000000000000000000000000000000000000000000000000000000000000  000000000000X                                                            0000000000000000000000000000                                                            09843000000024183879+0042000+00420000000000099375310000027393558+00158000000033758393+00000000049960000000027389DCV                                                            S
2CDT000000669600120150430201504300970300007BB        BESTJ60109                    200901010000000000000J6        CL0000000001000000000000000000000000UF    NN         NN00000000OTRA CLAUSULA DE AHORRO FAMILIAR   NO APLICA                     NACSNRAAA            M2029010100040000TIC365      NON    CUI   CANONO000000000RISKAMERIC   0764625463   000000000000000000000000000000      000000000000000             0000000000000    00  000000000X000000000000000000000000000000000000000000000000000000000000000000000000000000000000000000000000000000000000000000000000000000000000000000000000000000  000000000000X                                                            0000000000000000000000000000                                                            09843000000024564176+0042000+00420000000000099375310000027393558+00158000000033758393+00000000049960000000027389DCV                                                            S
2CDT00000067700012015052920150529061704000KBE        BCODE-B                       200504010041120050425B         CL0000000001500000000000000015000000UF    NN         NN00000000OTRA CLAUSULA DE AHORRO FAMILIAR   NO APLICA                     NACSNRAAA            M2025040100040000TIC365      NON    CUI   CANONO000000000RISKAMERIC   0764625463   000000000000000000000000000000      000000000000000             0000000000000    00  000000000X000000000000000000000000000000000000000000000000000000000000000000000000000000000000000000000000000000000000000000000000000000000000000000000000000000  000000000000X                                                            0000000000000000000000000000                                                            09963000000037360350+0041099+00410990000000152407060000042012164+00145000000048223538+00000000077200000000042004DCV                                                            S
2CDT00000068380012015063020150630061704000KBE        BCODE-B                       200504010041120050425B         CL0000000003000000000000000030000000UF    NN         NN00000000OTRA CLAUSULA DE AHORRO FAMILIAR   NO APLICA                     NACSNRAAA            M2025040100040000TIC365      NON    CUI   CANONO000000000RISKAMERIC   0764625463   000000000000000000000000000000      000000000000000             0000000000000    00  000000000X000000000000000000000000000000000000000000000000000000000000000000000000000000000000000000000000000000000000000000000000000000000000000000000000000000  000000000000X                                                            0000000000000000000000000000                                                            09963000000075252492+0041093+00410930000000304814120000084024327+00145000000096447075+00000000154400000000084009DCV                                                            S
2CDT00000070070012015083120150831061704000KBE        BCODE-B                       200504010041120050425B         CL0000000002000000000000000020000000UF    NN         NN00000000OTRA CLAUSULA DE AHORRO FAMILIAR   NO APLICA                     NACSNRAAA            M2025040100040000TIC365      NON    CUI   CANONO000000000RISKAMERIC   0764625463   000000000000000000000000000000      000000000000000             0000000000000    00  000000000X000000000000000000000000000000000000000000000000000000000000000000000000000000000000000000000000000000000000000000000000000000000000000000000000000000  000000000000X                                                            0000000000000000000000000000                                                            09973000000051015775+0040900+00409000000000203413370000056072443+00145000000064298050+00000000103100000000056062DCV                                                            S
2CDT00000070620012015093020150930061704000KBE        BCODE-B                       200504010041120050425B         CL0000000001000000000000000010000000UF    NN         NN00000000OTRA CLAUSULA DE AHORRO FAMILIAR   NO APLICA                     NACSNRAAA            M2025040100040000TIC365      NON    CUI   CANONO000000000RISKAMERIC   0764625463   000000000000000000000000000000      000000000000000             0000000000000    00  000000000X000000000000000000000000000000000000000000000000000000000000000000000000000000000000000000000000000000000000000000000000000000000000000000000000000000  000000000000X                                                            0000000000000000000000000000                                                            09973000000025748670+0040900+00409000000000101706690000028036221+00145000000032149025+00000000051550000000028031DCV                                                            S
2CDT000000713500120151030201510300612190003BE        BMETR-D                       200307150033920030801D         CL0000000002500000000000000020416666UF    NN         NN00000000OTRA CLAUSULA DE AHORRO FAMILIAR   NO APLICA                     NACSNRAAA            M2028071500055000TIC365      NON    CUI   CANONO000000000RISKAMERIC   0764625463   000000000000000000000000000000      000000000000000             0000000000000    00  000000000X000000000000000000000000000000000000000000000000000000000000000000000000000000000000000000000000000000000000000000000000000000000000000000000000000000  000000000000X                                                            0000000000000000000000000000                                                            10723000000066188006+0040600+00406000000000221347500000061016122+00139000000069904230+00000000000000000000061016DCV                                                            S
2CDT000000720400120151130201511300612190003BE        BMETR-D                       200307150033920030801D         CL0000000001000000000000000008166666UF    NN         NN00000000OTRA CLAUSULA DE AHORRO FAMILIAR   NO APLICA                     NACSNRAAA            M2028071500055000TIC365      NON    CUI   CANONO000000000RISKAMERIC   0764625463   000000000000000000000000000000      000000000000000             0000000000000    00  000000000X000000000000000000000000000000000000000000000000000000000000000000000000000000000000000000000000000000000000000000000000000000000000000000000000000000  000000000000X                                                            0000000000000000000000000000                                                            10723000000026683867+0040600+00406000000000088539000000024406449+00139000000027961692+00000000000000000000024406DCV                                                            S
2CDT000000732500120160129201601290612190003BE        BMETR-A                       200107150025720010703A         CL0000000002000000000000000014499999UF    NN         NN00000000OTRA CLAUSULA DE AHORRO FAMILIAR   NO APLICA                     NACSNRAAA            M2026071500056000TIC365      NON    CUI   CANONO000000000RISKAMERIC   0764625463   000000000000000000000000000000      000000000000000             0000000000000    00  000000000X000000000000000000000000000000000000000000000000000000000000000000000000000000000000000000000000000000000000000000000000000000000000000000000000000000  000000000000X                                                            0000000000000000000000000000                                                            10639000000047668567+0040002+00400020000000156000960000043002849+00124000000048087686+00000000000000000000043003DCV                                                            S
2CDT000000753000120160429201604290970300007BB        BESTN51214                    201412010000000000000N5        CL0000000003500000000000000000000000UF    NN         NN00000000OTRA CLAUSULA DE AHORRO FAMILIAR   NO APLICA                     NACSNRAAA            M2046120100033000TIC365      NON    CUI   CANONO000000000RISKAMERIC   0764625463   000000000000000000000000000000      000000000000000             0000000000000    00  000000000X000000000000000000000000000000000000000000000000000000000000000000000000000000000000000000000000000000000000000000000000000000000000000000000000000000  000000000000X                                                            0000000000000000000000000000                                                            10122000000093063932+0032290+00322900000000358069160000098704486+00205000000122556607+00000000183110000000098686DCV                                                            S
2CDT000000772700120160729201607290969298805BE        BLQIF-C                       200905150059720090714C         CL0000000002500000000000000025000000UF    NN         NN00000000OTRA CLAUSULA DE AHORRO FAMILIAR   NO APLICA                     NACSNRAA+            M2039051500048500TIC365      NON    CUI   CANONO000000000RISKAMERIC   0764625463   000000000000000000000000000000      000000000000000             0000000000000    00  000000000X000000000000000000000000000000000000000000000000000000000000000000000000000000000000000000000000000000000000000000000000000000000000000000000000000000  000000000000X                                                            0000000000000000000000000000                                                            10959000000073292505+0039700+00397000000000285582470000078722979+00210000000096724603+00000000247280000000078698DCV                                                            S
2CDT000000790100120161028201610280970180001BB        BBNS-G0310                    201003010000000000000G         CL0000000002500000000000000000000000UF    NN         NN00000000OTRA CLAUSULA DE AHORRO FAMILIAR   NO APLICA                     NACSNRAAA            M2035030100045000TIC365      NON    CUI   CANONO000000000RISKAMERIC   0764625463   000000000000000000000000000000      000000000000000             0000000000000    00  000000000X000000000000000000000000000000000000000000000000000000000000000000000000000000000000000000000000000000000000000000000000000000000000000000000000000000  000000000000X                                                            0000000000000000000000000000                                                            10942000000072985951+0037400+00374000000000274551620000075682240+00186000000094218924+00000000146650000000075667DCV                                                            S
2CDT000000819700120170428201704280970180001BB        BBNS-G0310                    201003010000000000000G         CL0000000002000000000000000000000000UF    NN         NN00000000OTRA CLAUSULA DE AHORRO FAMILIAR   NO APLICA                     NACSNRAAA            M2035030100045000TIC365      NON    CUI   CANONO000000000RISKAMERIC   0764625463   000000000000000000000000000000      000000000000000             0000000000000    00  000000000X000000000000000000000000000000000000000000000000000000000000000000000000000000000000000000000000000000000000000000000000000000000000000000000000000000  000000000000X                                                            0000000000000000000000000000                                                            10942000000058935451+0037400+00374000000000219641290000060545792+00186000000075375140+00000000117320000000060534DCV                                                            S
2CDT000000831200120170630201706300970300007BB        BESTN41114                    201411010000000000000N4        CL0000000003000000000000000000000000UF    NN         NN00000000OTRA CLAUSULA DE AHORRO FAMILIAR   NO APLICA                     NACSNRAAA            M2046110100033000TIC365      NON    CUI   CANONO000000000RISKAMERIC   0764625463   000000000000000000000000000000      000000000000000             0000000000000    00  000000000X000000000000000000000000000000000000000000000000000000000000000000000000000000000000000000000000000000000000000000000000000000000000000000000000000000  000000000000X                                                            0000000000000000000000000000                                                            10375000000083575668+0030895+00308950000000315428100000086950154+00205000000105228543+00000000163640000000086934DCV                                                            S
2CDT000000842000120170731201707310899004000BE        BESVA-H                       200502150041920050629H         CL0000000003000000000000000014000016UF    NN         NN00000000OTRA CLAUSULA DE AHORRO FAMILIAR   NO APLICA                     NACSNRAA             M2026021500035000TIC365      NON    CUI   CANONO000000000RISKAMERIC   0764625463   000000000000000000000000000000      000000000000000             0000000000000    00  000000000X000000000000000000000000000000000000000000000000000000000000000000000000000000000000000000000000000000000000000000000000000000000000000000000000000000  000000000000X                                                            0000000000000000000000000000                                                            10404000000050900844+0022970+00229700000000146261200000040318013+00140000000041554215+00000000148760000000040303DCV                                                            S
2CDT000000405600120111130201111300942710003BE        BENER-B2                      200106150026920010911B2        CL0000000000500000000000000001503067UF    NN         NN00000000OTRA CLAUSULA DE AHORRO FLEXIBLE   NO APLICA                     NACSNRAA-            M2022061500057500TIC365      NON    CUI   CANONO000000000RISKAMERIC   0764625463   000000000000000000000000000000      000000000000000             0000000000000    00  000000000X000000000000000000000000000000000000000000000000000000000000000000000000000000000000000000000000000000000000000000000000000000000000000000000000000000  000000000000X                                                            0000000000000000000000000000                                                            10039000000008951917+0055000+00550000000000015336100000004227513+00130000000004525658+00000000018480000000004226DCV                                                            S
2CDT000000440500120120531201205310970300007BB        BESTJ41008                    200810010000000000000J4        CL0000000000500000000000000000000000UF    NN         NN00000000OTRA CLAUSULA DE AHORRO FLEXIBLE   NO APLICA                     NACSNRAAA            M2028100100040000TIC365      NON    CUI   CANONO000000000RISKAMERIC   0764625463   000000000000000000000000000000      000000000000000             0000000000000    00  000000000X000000000000000000000000000000000000000000000000000000000000000000000000000000000000000000000000000000000000000000000000000000000000000000000000000000  000000000000X                                                            0000000000000000000000000000                                                            09665000000010802952+0044500+00445000000000049273490000013582613+00156000000016972294+00000000024490000000013581DCV                                                            S
2CDT000000454900120120731201207310970300007BB        BESTJ41008                    200810010000000000000J4        CL0000000000500000000000000000000000UF    NN         NN00000000OTRA CLAUSULA DE AHORRO FLEXIBLE   NO APLICA                     NACSNRAAA            M2028100100040000TIC365      NON    CUI   CANONO000000000RISKAMERIC   0764625463   000000000000000000000000000000      000000000000000             0000000000000    00  000000000X000000000000000000000000000000000000000000000000000000000000000000000000000000000000000000000000000000000000000000000000000000000000000000000000000000  000000000000X                                                            0000000000000000000000000000                                                            09665000000010861941+0044500+00445000000000049273490000013582613+00156000000016972294+00000000024490000000013581DCV                                                            S
2CDT00000046720012012092820120928061704000KBE        BCODE-B                       200504010041120050425B         CL0000000000500000000000000005000000UF    NN         NN00000000OTRA CLAUSULA DE AHORRO FLEXIBLE   NO APLICA                     NACSNRAAA            M2025040100040000TIC365      NON    CUI   CANONO000000000RISKAMERIC   0764625463   000000000000000000000000000000      000000000000000             0000000000000    00  000000000X000000000000000000000000000000000000000000000000000000000000000000000000000000000000000000000000000000000000000000000000000000000000000000000000000000  000000000000X                                                            0000000000000000000000000000                                                            09867000000011236769+0043000+00430000000000050312840000013869116+00145000000016074513+00000000025340000000013866DCV                                                            S
2CDT00000047490012012103120121031061704000KBE        BCODE-B                       200504010041120050425B         CL0000000000500000000000000005000000UF    NN         NN00000000OTRA CLAUSULA DE AHORRO FLEXIBLE   NO APLICA                     NACSNRAAA            M2025040100040000TIC365      NON    CUI   CANONO000000000RISKAMERIC   0764625463   000000000000000000000000000000      000000000000000             0000000000000    00  000000000X000000000000000000000000000000000000000000000000000000000000000000000000000000000000000000000000000000000000000000000000000000000000000000000000000000  000000000000X                                                            0000000000000000000000000000                                                            09867000000011124046+0043000+00430000000000050312840000013869116+00145000000016074513+00000000025340000000013866DCV                                                            S
2CDT00000048590012012123120121231061704000KBE        BCODE-B                       200504010041120050425B         CL0000000000500000000000000005000000UF    NN         NN00000000OTRA CLAUSULA DE AHORRO FLEXIBLE   NO APLICA                     NACSNRAAA            M2025040100040000TIC365      NON    CUI   CANONO000000000RISKAMERIC   0764625463   000000000000000000000000000000      000000000000000             0000000000000    00  000000000X000000000000000000000000000000000000000000000000000000000000000000000000000000000000000000000000000000000000000000000000000000000000000000000000000000  000000000000X                                                            0000000000000000000000000000                                                            09867000000011255663+0043000+00430000000000050312840000013869116+00145000000016074513+00000000025340000000013866DCV                                                            S
2CDT00000049450012013013120130131061704000KBE        BCODE-B                       200504010041120050425B         CL0000000000500000000000000005000000UF    NN         NN00000000OTRA CLAUSULA DE AHORRO FLEXIBLE   NO APLICA                     NACSNRAAA            M2025040100040000TIC365      NON    CUI   CANONO000000000RISKAMERIC   0764625463   000000000000000000000000000000      000000000000000             0000000000000    00  000000000X000000000000000000000000000000000000000000000000000000000000000000000000000000000000000000000000000000000000000000000000000000000000000000000000000000  000000000000X                                                            0000000000000000000000000000                                                            09867000000011279452+0043000+00430000000000050312840000013869116+00145000000016074513+00000000025340000000013866DCV                                                            S
2CDT00000049920012013022820130228061704000KBE        BCODE-B                       200504010041120050425B         CL0000000001500000000000000015000000UF    NN         NN00000000OTRA CLAUSULA DE AHORRO FLEXIBLE   NO APLICA                     NACSNRAAA            M2025040100040000TIC365      NON    CUI   CANONO000000000RISKAMERIC   0764625463   000000000000000000000000000000      000000000000000             0000000000000    00  000000000X000000000000000000000000000000000000000000000000000000000000000000000000000000000000000000000000000000000000000000000000000000000000000000000000000000  000000000000X                                                            0000000000000000000000000000                                                            09867000000033994259+0043000+00430000000000150938520000041607349+00145000000048223538+00000000076000000000041599DCV                                                            S
2CDT00000051870012013053120130531061704000KBE        BCODE-B                       200504010041120050425B         CL0000000001500000000000000015000000UF    NN         NN00000000OTRA CLAUSULA DE AHORRO FLEXIBLE   NO APLICA                     NACSNRAAA            M2025040100040000TIC365      NON    CUI   CANONO000000000RISKAMERIC   0764625463   000000000000000000000000000000      000000000000000             0000000000000    00  000000000X000000000000000000000000000000000000000000000000000000000000000000000000000000000000000000000000000000000000000000000000000000000000000000000000000000  000000000000X                                                            0000000000000000000000000000                                                            09867000000033737547+0043000+00430000000000150938520000041607349+00145000000048223538+00000000076000000000041599DCV                                                            S
2CDT000000540500120130830201308300970300007BB        BESTJ60109                    200901010000000000000J6        CL0000000001500000000000000000000000UF    NN         NN00000000OTRA CLAUSULA DE AHORRO FLEXIBLE   NO APLICA                     NACSNRAAA            M2029010100040000TIC365      NON    CUI   CANONO000000000RISKAMERIC   0764625463   000000000000000000000000000000      000000000000000             0000000000000    00  000000000X000000000000000000000000000000000000000000000000000000000000000000000000000000000000000000000000000000000000000000000000000000000000000000000000000000  000000000000X                                                            0000000000000000000000000000                                                            09843000000033999081+0042000+00420000000000149062960000041090337+00158000000050637589+00000000074950000000041083DCV                                                            S
2CDT000000558900120131129201311290970300007BB        BESTJ41008                    200810010000000000000J4        CL0000000001500000000000000000000000UF    NN         NN00000000OTRA CLAUSULA DE AHORRO FLEXIBLE   NO APLICA                     NACSNRAAA            M2028100100040000TIC365      NON    CUI   CANONO000000000RISKAMERIC   0764625463   000000000000000000000000000000      000000000000000             0000000000000    00  000000000X000000000000000000000000000000000000000000000000000000000000000000000000000000000000000000000000000000000000000000000000000000000000000000000000000000  000000000000X                                                            0000000000000000000000000000                                                            09826000000034201975+0042300+00423000000000150282880000041426618+00156000000050916881+00000000075470000000041419DCV                                                            S
2CDT000000572600120140131201401310970300007BB        BESTJ60109                    200901010000000000000J6        CL0000000001500000000000000000000000UF    NN         NN00000000OTRA CLAUSULA DE AHORRO FLEXIBLE   NO APLICA                     NACSNRAAA            M2029010100040000TIC365      NON    CUI   CANONO000000000RISKAMERIC   0764625463   000000000000000000000000000000      000000000000000             0000000000000    00  000000000X000000000000000000000000000000000000000000000000000000000000000000000000000000000000000000000000000000000000000000000000000000000000000000000000000000  000000000000X                                                            0000000000000000000000000000                                                            09843000000034498420+0042000+00420000000000149062960000041090337+00158000000050637589+00000000074950000000041083DCV                                                            S
2CDT00000059000012014043020140430061704000KBE        BCODE-B                       200504010041120050425B         CL0000000001500000000000000015000000UF    NN         NN00000000OTRA CLAUSULA DE AHORRO FLEXIBLE   NO APLICA                     NACSNRAAA            M2025040100040000TIC365      NON    CUI   CANONO000000000RISKAMERIC   0764625463   000000000000000000000000000000      000000000000000             0000000000000    00  000000000X000000000000000000000000000000000000000000000000000000000000000000000000000000000000000000000000000000000000000000000000000000000000000000000000000000  000000000000X                                                            0000000000000000000000000000                                                            09888000000035096329+0042600+00426000000000151259760000041695902+00145000000048223538+00000000076260000000041688DCV                                                            S
2CDT00000060170012014063020140630061704000KBE        BCODE-B                       200504010041120050425B         CL0000000001500000000000000015000000UF    NN         NN00000000OTRA CLAUSULA DE AHORRO FLEXIBLE   NO APLICA                     NACSNRAAA            M2025040100040000TIC365      NON    CUI   CANONO000000000RISKAMERIC   0764625463   000000000000000000000000000000      000000000000000             0000000000000    00  000000000X000000000000000000000000000000000000000000000000000000000000000000000000000000000000000000000000000000000000000000000000000000000000000000000000000000  000000000000X                                                            0000000000000000000000000000                                                            09893000000035741087+0042500+00425000000000151336250000041716986+00145000000048223538+00000000076320000000041709DCV                                                            S
2CDT000000627700120141030201410300970300007BB        BESTJ41008                    200810010000000000000J4        CL0000000002000000000000000000000000UF    NN         NN00000000OTRA CLAUSULA DE AHORRO FLEXIBLE   NO APLICA                     NACSNRAAA            M2028100100040000TIC365      NON    CUI   CANONO000000000RISKAMERIC   0764625463   000000000000000000000000000000      000000000000000             0000000000000    00  000000000X000000000000000000000000000000000000000000000000000000000000000000000000000000000000000000000000000000000000000000000000000000000000000000000000000000  000000000000X                                                            0000000000000000000000000000                                                            09826000000047626904+0042300+00423000000000200377170000055235491+00156000000067889174+00000000100630000000055225DCV                                                            S
2CDT000000657300120150227201502270970300007BB        BESTJ60109                    200901010000000000000J6        CL0000000001500000000000000000000000UF    NN         NN00000000OTRA CLAUSULA DE AHORRO FLEXIBLE   NO APLICA                     NACSNRAAA            M2029010100040000TIC365      NON    CUI   CANONO000000000RISKAMERIC   0764625463   000000000000000000000000000000      000000000000000             0000000000000    00  000000000X000000000000000000000000000000000000000000000000000000000000000000000000000000000000000000000000000000000000000000000000000000000000000000000000000000  000000000000X                                                            0000000000000000000000000000                                                            09843000000036275819+0042000+00420000000000149062960000041090337+00158000000050637589+00000000074950000000041083DCV                                                            S
2CDT00000067720012015052920150529061704000KBE        BCODE-B                       200504010041120050425B         CL0000000001500000000000000015000000UF    NN         NN00000000OTRA CLAUSULA DE AHORRO FLEXIBLE   NO APLICA                     NACSNRAAA            M2025040100040000TIC365      NON    CUI   CANONO000000000RISKAMERIC   0764625463   000000000000000000000000000000      000000000000000             0000000000000    00  000000000X000000000000000000000000000000000000000000000000000000000000000000000000000000000000000000000000000000000000000000000000000000000000000000000000000000  000000000000X                                                            0000000000000000000000000000                                                            09963000000037360350+0041099+00410990000000152407060000042012164+00145000000048223538+00000000077200000000042004DCV                                                            S
2CDT00000068340012015063020150630061704000KBE        BCODE-B                       200504010041120050425B         CL0000000001000000000000000010000000UF    NN         NN00000000OTRA CLAUSULA DE AHORRO FLEXIBLE   NO APLICA                     NACSNRAAA            M2025040100040000TIC365      NON    CUI   CANONO000000000RISKAMERIC   0764625463   000000000000000000000000000000      000000000000000             0000000000000    00  000000000X000000000000000000000000000000000000000000000000000000000000000000000000000000000000000000000000000000000000000000000000000000000000000000000000000000  000000000000X                                                            0000000000000000000000000000                                                            09963000000025084164+0041099+00410990000000101604710000028008109+00145000000032149025+00000000051460000000028003DCV                                                            S
2CDT00000070640012015093020150930061704000KBE        BCODE-B                       200504010041120050425B         CL0000000001000000000000000010000000UF    NN         NN00000000OTRA CLAUSULA DE AHORRO FLEXIBLE   NO APLICA                     NACSNRAAA            M2025040100040000TIC365      NON    CUI   CANONO000000000RISKAMERIC   0764625463   000000000000000000000000000000      000000000000000             0000000000000    00  000000000X000000000000000000000000000000000000000000000000000000000000000000000000000000000000000000000000000000000000000000000000000000000000000000000000000000  000000000000X                                                            0000000000000000000000000000                                                            09973000000025748670+0040900+00409000000000101706690000028036221+00145000000032149025+00000000051550000000028031DCV                                                            S
2CDT00000071380012015103020151030061704000KBE        BCODE-B                       200504010041120050425B         CL0000000001000000000000000010000000UF    NN         NN00000000OTRA CLAUSULA DE AHORRO FLEXIBLE   NO APLICA                     NACSNRAAA            M2025040100040000TIC365      NON    CUI   CANONO000000000RISKAMERIC   0764625463   000000000000000000000000000000      000000000000000             0000000000000    00  000000000X000000000000000000000000000000000000000000000000000000000000000000000000000000000000000000000000000000000000000000000000000000000000000000000000000000  000000000000X                                                            0000000000000000000000000000                                                            09973000000025463944+0040900+00409000000000101706690000028036221+00145000000032149025+00000000051550000000028031DCV                                                            S
2CDT000000720600120151130201511300970040005BB        BCHI-O0704                    200407010000000000000O         CL0000000002000000000000000000000000UF    NN         NN00000000OTRA CLAUSULA DE AHORRO FLEXIBLE   NO APLICA                     NACSNRAAA            M2026070100045000TIC365      NON    CUI   CANONO000000000RISKAMERIC   0764625463   000000000000000000000000000000      000000000000000             0000000000000    00  000000000X000000000000000000000000000000000000000000000000000000000000000000000000000000000000000000000000000000000000000000000000000000000000000000000000000000  000000000000X                                                            0000000000000000000000000000                                                            10154000000032943471+0040509+00405090000000093043540000025648160+00131000000028262484+00000000047670000000025643DCV                                                            S
2CDT000000732700120160129201601290612190003BE        BMETR-A                       200107150025720010703A         CL0000000002000000000000000014499999UF    NN         NN00000000OTRA CLAUSULA DE AHORRO FLEXIBLE   NO APLICA                     NACSNRAAA            M2026071500056000TIC365      NON    CUI   CANONO000000000RISKAMERIC   0764625463   000000000000000000000000000000      000000000000000             0000000000000    00  000000000X000000000000000000000000000000000000000000000000000000000000000000000000000000000000000000000000000000000000000000000000000000000000000000000000000000  000000000000X                                                            0000000000000000000000000000                                                            10639000000047668567+0040002+00400020000000156000960000043002849+00124000000048087686+00000000000000000000043003DCV                                                            S
2CDT000000767100120160630201606300612160007BE        BFFCC-V                       201211010073520121120V         CL0000000001500000000000000015000000UF    NN         NN00000000OTRA CLAUSULA DE AHORRO FLEXIBLE   NO APLICA                     NACSNRAAA            M2037110100037000TIC365      NON    CUI   CANONO000000000RISKAMERIC   0764625463   000000000000000000000000000000      000000000000000             0000000000000    00  000000000X000000000000000000000000000000000000000000000000000000000000000000000000000000000000000000000000000000000000000000000000000000000000000000000000000000  000000000000X                                                            0000000000000000000000000000                                                            10012000000039359236+0036886+00368860000000152437880000042020661+00184000000053868875+00000000000000000000042021DCV                                                            S
2CDT000000784700120160930201609300612190003BE        BMETR-E                       200405150037020040511E         CL0000000003000000000000000025499999UF    NN         NN00000000OTRA CLAUSULA DE AHORRO FLEXIBLE   NO APLICA                     NACSNRAAA            M2029051500055000TIC365      NON    CUI   CANONO000000000RISKAMERIC   0764625463   000000000000000000000000000000      000000000000000             0000000000000    00  000000000X000000000000000000000000000000000000000000000000000000000000000000000000000000000000000000000000000000000000000000000000000000000000000000000000000000  000000000000X                                                            0000000000000000000000000000                                                            10821000000082436248+0039800+00398000000000281491250000077595202+00139000000089419847+00000000000000000000077595DCV                                                            S
2CDT000000824900120170531201705310970180001BB        BBNS-G0310                    201003010000000000000G         CL0000000001500000000000000000000000UF    NN         NN00000000OTRA CLAUSULA DE AHORRO FLEXIBLE   NO APLICA                     NACSNRAAA            M2035030100045000TIC365      NON    CUI   CANONO000000000RISKAMERIC   0764625463   000000000000000000000000000000      000000000000000             0000000000000    00  000000000X000000000000000000000000000000000000000000000000000000000000000000000000000000000000000000000000000000000000000000000000000000000000000000000000000000  000000000000X                                                            0000000000000000000000000000                                                            10942000000044479447+0037400+00374000000000164730970000045409344+00186000000056531355+00000000087990000000045400DCV                                                            S
2CDT000000855100120170929201709290970300007BB        BESTN41114                    201411010000000000000N4        CL0000000002500000000000000000000000UF    NN         NN00000000OTRA CLAUSULA DE AHORRO FLEXIBLE   NO APLICA                     NACSNRAAA            M2046110100033000TIC365      NON    CUI   CANONO000000000RISKAMERIC   0764625463   000000000000000000000000000000      000000000000000             0000000000000    00  000000000X000000000000000000000000000000000000000000000000000000000000000000000000000000000000000000000000000000000000000000000000000000000000000000000000000000  000000000000X                                                            0000000000000000000000000000                                                            10375000000070151768+0030895+00308950000000262856750000072458462+00205000000087690452+00000000136370000000072444DCV                                                            S
2CDT000000294700120090130200901300942710003BE        BENER-B2                      200106150026920010911B2        CL0000000001000000000000000003006133UF    NN         NN00000000OTRA MUTUAL AHORRO EDUCACION SUPERINO APLICA                     NACSNRAA-            M2022061500057500TIC365      NON    CUI   CANONO000000000RISKAMERIC   0764625463   000000000000000000000000000000      000000000000000             0000000000000    00  000000000X000000000000000000000000000000000000000000000000000000000000000000000000000000000000000000000000000000000000000000000000000000000000000000000000000000  000000000000X                                                            0000000000000000000000000000                                                            10023000000019363092+0056000+00560000000000030623320000008441550+00130000000009051316+00000000036870000000008438DCV                                                            S
2CDT000000318800120100226201002260942710003BE        BENER-B2                      200106150026920010911B2        CL0000000001000000000000000003006133UF    NN         NN00000000OTRA MUTUAL AHORRO EDUCACION SUPERINO APLICA                     NACSNRAA-            M2022061500057500TIC365      NON    CUI   CANONO000000000RISKAMERIC   0764625463   000000000000000000000000000000      000000000000000             0000000000000    00  000000000X000000000000000000000000000000000000000000000000000000000000000000000000000000000000000000000000000000000000000000000000000000000000000000000000000000  000000000000X                                                            0000000000000000000000000000                                                            10023000000018127573+0056000+00560000000000030623320000008441550+00130000000009051316+00000000036870000000008438DCV                                                            S
2CDT000000373000120110630201106300942710003BE        BENER-B2                      200106150026920010911B2        CL0000000001000000000000000003006133UF    NN         NN00000000OTRA MUTUAL AHORRO EDUCACION SUPERINO APLICA                     NACSNRAA-            M2022061500057500TIC365      NON    CUI   CANONO000000000RISKAMERIC   0764625463   000000000000000000000000000000      000000000000000             0000000000000    00  000000000X000000000000000000000000000000000000000000000000000000000000000000000000000000000000000000000000000000000000000000000000000000000000000000000000000000  000000000000X                                                            0000000000000000000000000000                                                            10023000000017168203+0056000+00560000000000030623320000008441550+00130000000009051316+00000000036870000000008438DCV                                                            S
2CDT000000419200120120131201201310970300007BB        BESTJ41008                    200810010000000000000J4        CL0000000000500000000000000000000000UF    NN         NN00000000OTRA MUTUAL AHORRO EDUCACION SUPERINO APLICA                     NACSNRAAA            M2028100100040000TIC365      NON    CUI   CANONO000000000RISKAMERIC   0764625463   000000000000000000000000000000      000000000000000             0000000000000    00  000000000X000000000000000000000000000000000000000000000000000000000000000000000000000000000000000000000000000000000000000000000000000000000000000000000000000000  000000000000X                                                            0000000000000000000000000000                                                            09665000000010768446+0044500+00445000000000049273490000013582613+00156000000016972294+00000000024490000000013581DCV                                                            S
2CDT000000439900120120531201205310970300007BB        BESTJ41008                    200810010000000000000J4        CL0000000000500000000000000000000000UF    NN         NN00000000OTRA MUTUAL AHORRO EDUCACION SUPERINO APLICA                     NACSNRAAA            M2028100100040000TIC365      NON    CUI   CANONO000000000RISKAMERIC   0764625463   000000000000000000000000000000      000000000000000             0000000000000    00  000000000X000000000000000000000000000000000000000000000000000000000000000000000000000000000000000000000000000000000000000000000000000000000000000000000000000000  000000000000X                                                            0000000000000000000000000000                                                            09665000000010802952+0044500+00445000000000049273490000013582613+00156000000016972294+00000000024490000000013581DCV                                                            S
2CDT000000446900120120629201206290970300007BB        BESTJ41008                    200810010000000000000J4        CL0000000000500000000000000000000000UF    NN         NN00000000OTRA MUTUAL AHORRO EDUCACION SUPERINO APLICA                     NACSNRAAA            M2028100100040000TIC365      NON    CUI   CANONO000000000RISKAMERIC   0764625463   000000000000000000000000000000      000000000000000             0000000000000    00  000000000X000000000000000000000000000000000000000000000000000000000000000000000000000000000000000000000000000000000000000000000000000000000000000000000000000000  000000000000X                                                            0000000000000000000000000000                                                            09665000000010843217+0044500+00445000000000049273490000013582613+00156000000016972294+00000000024490000000013581DCV                                                            S
2CDT000000474200120121031201210310970300007BB        BEST-F1007                    200710010000000000000F         CL0000000000500000000000000000000000UF    NN         NN00000000OTRA MUTUAL AHORRO EDUCACION SUPERINO APLICA                     NACSNRAAA            M2027100100042500TIC365      NON    CUI   CANONO000000000RISKAMERIC   0764625463   000000000000000000000000000000      000000000000000             0000000000000    00  000000000X000000000000000000000000000000000000000000000000000000000000000000000000000000000000000000000000000000000000000000000000000000000000000000000000000000  000000000000X                                                            0000000000000000000000000000                                                            09876000000011184055+0044306+00443060000000050409060000013895642+00153000000017006543+00000000025400000000013893DCV                                                            S
2CDT000000485200120121231201212310970300007BB        BESTJ41008                    200810010000000000000J4        CL0000000000500000000000000000000000UF    NN         NN00000000OTRA MUTUAL AHORRO EDUCACION SUPERINO APLICA                     NACSNRAAA            M2028100100040000TIC365      NON    CUI   CANONO000000000RISKAMERIC   0764625463   000000000000000000000000000000      000000000000000             0000000000000    00  000000000X000000000000000000000000000000000000000000000000000000000000000000000000000000000000000000000000000000000000000000000000000000000000000000000000000000  000000000000X                                                            0000000000000000000000000000                                                            09665000000010961666+0044500+00445000000000049273490000013582613+00156000000016972294+00000000024490000000013581DCV                                                            S
2CDT000000505500120130328201303280970300007BB        BESTJ41008                    200810010000000000000J4        CL0000000001000000000000000000000000UF    NN         NN00000000OTRA MUTUAL AHORRO EDUCACION SUPERINO APLICA                     NACSNRAAA            M2028100100040000TIC365      NON    CUI   CANONO000000000RISKAMERIC   0764625463   000000000000000000000000000000      000000000000000             0000000000000    00  000000000X000000000000000000000000000000000000000000000000000000000000000000000000000000000000000000000000000000000000000000000000000000000000000000000000000000  000000000000X                                                            0000000000000000000000000000                                                            09665000000022178011+0044500+00445000000000098546990000027165226+00156000000033944587+00000000048980000000027160DCV                                                            S
2CDT000000512200120130430201304300970300007BB        BESTJ41008                    200810010000000000000J4        CL0000000001500000000000000000000000UF    NN         NN00000000OTRA MUTUAL AHORRO EDUCACION SUPERINO APLICA                     NACSNRAAA            M2028100100040000TIC365      NON    CUI   CANONO000000000RISKAMERIC   0764625463   000000000000000000000000000000      000000000000000             0000000000000    00  000000000X000000000000000000000000000000000000000000000000000000000000000000000000000000000000000000000000000000000000000000000000000000000000000000000000000000  000000000000X                                                            0000000000000000000000000000                                                            09665000000032819105+0044500+00445000000000147820480000040747839+00156000000050916881+00000000073470000000040741DCV                                                            S
2CDT00000055810012013112920131129096722460KBE        BMGAS-D2                      200106010025920010711D2        CL0000000001500000000000000015000000UF    NN         NN00000000OTRA MUTUAL AHORRO EDUCACION SUPERINO APLICA                     NACSNRAA-            M2026060100065000TIC365      NON    CUI   CANONO000000000RISKAMERIC   0764625463   000000000000000000000000000000      000000000000000             0000000000000    00  000000000X000000000000000000000000000000000000000000000000000000000000000000000000000000000000000000000000000000000000000000000000000000000000000000000000000000  000000000000X                                                            0000000000000000000000000000                                                            10217000000037123720+0061000+00610000000000156458850000043129071+00153000000055852084+00000000190510000000043110DCV                                                            S
2CDT000000627400120141030201410300970300007BB        BESTJ41008                    200810010000000000000J4        CL0000000001000000000000000000000000UF    NN         NN00000000OTRA MUTUAL AHORRO EDUCACION SUPERINO APLICA                     NACSNRAAA            M2028100100040000TIC365      NON    CUI   CANONO000000000RISKAMERIC   0764625463   000000000000000000000000000000      000000000000000             0000000000000    00  000000000X000000000000000000000000000000000000000000000000000000000000000000000000000000000000000000000000000000000000000000000000000000000000000000000000000000  000000000000X                                                            0000000000000000000000000000                                                            09826000000023813452+0042300+00423000000000100188590000027617745+00156000000033944587+00000000050320000000027613DCV                                                            S
2CDT000000656600120150227201502270970300007BB        BESTJ60109                    200901010000000000000J6        CL0000000001500000000000000000000000UF    NN         NN00000000OTRA MUTUAL AHORRO EDUCACION SUPERINO APLICA                     NACSNRAAA            M2029010100040000TIC365      NON    CUI   CANONO000000000RISKAMERIC   0764625463   000000000000000000000000000000      000000000000000             0000000000000    00  000000000X000000000000000000000000000000000000000000000000000000000000000000000000000000000000000000000000000000000000000000000000000000000000000000000000000000  000000000000X                                                            0000000000000000000000000000                                                            09843000000036275819+0042000+00420000000000149062960000041090337+00158000000050637589+00000000074950000000041083DCV                                                            S
2CDT00000068290012015063020150630061704000KBE        BCODE-B                       200504010041120050425B         CL0000000001000000000000000010000000UF    NN         NN00000000OTRA MUTUAL AHORRO EDUCACION SUPERINO APLICA                     NACSNRAAA            M2025040100040000TIC365      NON    CUI   CANONO000000000RISKAMERIC   0764625463   000000000000000000000000000000      000000000000000             0000000000000    00  000000000X000000000000000000000000000000000000000000000000000000000000000000000000000000000000000000000000000000000000000000000000000000000000000000000000000000  000000000000X                                                            0000000000000000000000000000                                                            09963000000025084164+0041099+00410990000000101604710000028008109+00145000000032149025+00000000051460000000028003DCV                                                            S
2CDT000000706000120150930201509300970300007BB        BESTJ60109                    200901010000000000000J6        CL0000000001000000000000000000000000UF    NN         NN00000000OTRA MUTUAL AHORRO EDUCACION SUPERINO APLICA                     NACSNRAAA            M2029010100040000TIC365      NON    CUI   CANONO000000000RISKAMERIC   0764625463   000000000000000000000000000000      000000000000000             0000000000000    00  000000000X000000000000000000000000000000000000000000000000000000000000000000000000000000000000000000000000000000000000000000000000000000000000000000000000000000  000000000000X                                                            0000000000000000000000000000                                                            09843000000025081339+0042000+00420000000000099375310000027393558+00158000000033758393+00000000049960000000027389DCV                                                            S
2CDT000000819300120170428201704280970180001BB        BBNS-G0310                    201003010000000000000G         CL0000000002000000000000000000000000UF    NN         NN00000000OTRA MUTUAL AHORRO EDUCACION SUPERINO APLICA                     NACSNRAAA            M2035030100045000TIC365      NON    CUI   CANONO000000000RISKAMERIC   0764625463   000000000000000000000000000000      000000000000000             0000000000000    00  000000000X000000000000000000000000000000000000000000000000000000000000000000000000000000000000000000000000000000000000000000000000000000000000000000000000000000  000000000000X                                                            0000000000000000000000000000                                                            10942000000058935451+0037400+00374000000000219641290000060545792+00186000000075375140+00000000117320000000060534DCV                                                            S
2CDT000000885400120171229201712290970300007BB        BEST-F1007                    200710010000000000000F         CL0000000002500000000000000000000000UF    NN         NN00000000OTRA MUTUAL AHORRO EDUCACION SUPERINO APLICA                     NACSNRAAA            M2027100100042500TIC365      NON    CUI   CANONO000000000RISKAMERIC   0764625463   000000000000000000000000000000      000000000000000             0000000000000    00  000000000X000000000000000000000000000000000000000000000000000000000000000000000000000000000000000000000000000000000000000000000000000000000000000000000000000000  000000000000X                                                            0000000000000000000000000000                                                            10374000000070550034+0037100+00371000000000264754770000072981666+00153000000085032716+00000000137340000000072968DCV                                                            S
2CDT000000922800120180531201805310970530002BB        BSECH11206                    200612010000000000000H1        CL0000000003000000000000000000000000UF    NN         NN00000000OTRA MUTUAL AHORRO EDUCACION SUPERINO APLICA                     NACSNRAA             M2029120100030000TIC365      NON    CUI   CANONO000000000RISKAMERIC   0764625463   000000000000000000000000000000      000000000000000             0000000000000    00  000000000X000000000000000000000000000000000000000000000000000000000000000000000000000000000000000000000000000000000000000000000000000000000000000000000000000000  000000000000X                                                            0000000000000000000000000000                                                            09660000000074393275+0037000+00370000000000254592240000070180286+00156000000078157300+00000000299530000000070150DCV                                                            S
2CDT000000957200120181031201810310910810006BE        BENDE-H                       200310150031720031003H         CL0000000003000000000000000015960000UF    NN         NN00000000OTRA MUTUAL AHORRO EDUCACION SUPERINO APLICA                     NACSNRAA             M2028101500062000TIC365      NON    CUI   CANONO000000000RISKAMERIC   0764625463   000000000000000000000000000000      000000000000000             0000000000000    00  000000000X000000000000000000000000000000000000000000000000000000000000000000000000000000000000000000000000000000000000000000000000000000000000000000000000000000  000000000000X                                                            0000000000000000000000000000                                                            10997000000048743391+0037600+00376000000000180406080000049730308+00146000000054745395+00000000189110000000049711DCV                                                            S
2CDT000000312000120091231200912310942710003BE        BENER-B2                      200106150026920010911B2        CL0000000001000000000000000003006133UF    NN         NN00000000OTRA MUTUAL INVERSION SEGURA       NO APLICA                     NACSNRAA-            M2022061500057500TIC365      NON    CUI   CANONO000000000RISKAMERIC   0764625463   000000000000000000000000000000      000000000000000             0000000000000    00  000000000X000000000000000000000000000000000000000000000000000000000000000000000000000000000000000000000000000000000000000000000000000000000000000000000000000000  000000000000X                                                            0000000000000000000000000000                                                            10023000000017999429+0056000+00560000000000030623320000008441550+00130000000009051316+00000000036870000000008438DCV                                                            S
2CDT000000376400120110729201107290942710003BE        BENER-B2                      200106150026920010911B2        CL0000000000500000000000000001503067UF    NN         NN00000000OTRA MUTUAL INVERSION SEGURA       NO APLICA                     NACSNRAA-            M2022061500057500TIC365      NON    CUI   CANONO000000000RISKAMERIC   0764625463   000000000000000000000000000000      000000000000000             0000000000000    00  000000000X000000000000000000000000000000000000000000000000000000000000000000000000000000000000000000000000000000000000000000000000000000000000000000000000000000  000000000000X                                                            0000000000000000000000000000                                                            10023000000008642902+0056000+00560000000000015311660000004220775+00130000000004525658+00000000018430000000004219DCV                                                            S
2CDT000000393300120110930201109300942710003BE        BENER-B2                      200106150026920010911B2        CL0000000000500000000000000001503067UF    NN         NN00000000OTRA MUTUAL INVERSION SEGURA       NO APLICA                     NACSNRAA-            M2022061500057500TIC365      NON    CUI   CANONO000000000RISKAMERIC   0764625463   000000000000000000000000000000      000000000000000             0000000000000    00  000000000X000000000000000000000000000000000000000000000000000000000000000000000000000000000000000000000000000000000000000000000000000000000000000000000000000000  000000000000X                                                            0000000000000000000000000000                                                            10023000000008751198+0056000+00560000000000015311660000004220775+00130000000004525658+00000000018430000000004219DCV                                                            S
2CDT000000424500120120229201202290970300007BB        BESTJ41008                    200810010000000000000J4        CL0000000000500000000000000000000000UF    NN         NN00000000OTRA MUTUAL INVERSION SEGURA       NO APLICA                     NACSNRAAA            M2028100100040000TIC365      NON    CUI   CANONO000000000RISKAMERIC   0764625463   000000000000000000000000000000      000000000000000             0000000000000    00  000000000X000000000000000000000000000000000000000000000000000000000000000000000000000000000000000000000000000000000000000000000000000000000000000000000000000000  000000000000X                                                            0000000000000000000000000000                                                            09665000000010831697+0044500+00445000000000049273490000013582613+00156000000016972294+00000000024490000000013581DCV                                                            S
2CDT000000440100120120531201205310970300007BB        BESTJ41008                    200810010000000000000J4        CL0000000000500000000000000000000000UF    NN         NN00000000OTRA MUTUAL INVERSION SEGURA       NO APLICA                     NACSNRAAA            M2028100100040000TIC365      NON    CUI   CANONO000000000RISKAMERIC   0764625463   000000000000000000000000000000      000000000000000             0000000000000    00  000000000X000000000000000000000000000000000000000000000000000000000000000000000000000000000000000000000000000000000000000000000000000000000000000000000000000000  000000000000X                                                            0000000000000000000000000000                                                            09665000000010802952+0044500+00445000000000049273490000013582613+00156000000016972294+00000000024490000000013581DCV                                                            S
2CDT000000447100120120629201206290970300007BB        BESTJ41008                    200810010000000000000J4        CL0000000000500000000000000000000000UF    NN         NN00000000OTRA MUTUAL INVERSION SEGURA       NO APLICA                     NACSNRAAA            M2028100100040000TIC365      NON    CUI   CANONO000000000RISKAMERIC   0764625463   000000000000000000000000000000      000000000000000             0000000000000    00  000000000X000000000000000000000000000000000000000000000000000000000000000000000000000000000000000000000000000000000000000000000000000000000000000000000000000000  000000000000X                                                            0000000000000000000000000000                                                            09665000000010843217+0044500+00445000000000049273490000013582613+00156000000016972294+00000000024490000000013581DCV                                                            S
2CDT000000454500120120731201207310970300007BB        BESTJ41008                    200810010000000000000J4        CL0000000002500000000000000000000000UF    NN         NN00000000OTRA MUTUAL INVERSION SEGURA       NO APLICA                     NACSNRAAA            M2028100100040000TIC365      NON    CUI   CANONO000000000RISKAMERIC   0764625463   000000000000000000000000000000      000000000000000             0000000000000    00  000000000X000000000000000000000000000000000000000000000000000000000000000000000000000000000000000000000000000000000000000000000000000000000000000000000000000000  000000000000X                                                            0000000000000000000000000000                                                            09665000000054309704+0044500+00445000000000246367470000067913065+00156000000084861468+00000000122440000000067901DCV                                                            S
2CDT000000466800120120928201209280970300007BB        BESTJ41008                    200810010000000000000J4        CL0000000000500000000000000000000000UF    NN         NN00000000OTRA MUTUAL INVERSION SEGURA       NO APLICA                     NACSNRAAA            M2028100100040000TIC365      NON    CUI   CANONO000000000RISKAMERIC   0764625463   000000000000000000000000000000      000000000000000             0000000000000    00  000000000X000000000000000000000000000000000000000000000000000000000000000000000000000000000000000000000000000000000000000000000000000000000000000000000000000000  000000000000X                                                            0000000000000000000000000000                                                            09665000000010943339+0044500+00445000000000049273490000013582613+00156000000016972294+00000000024490000000013581DCV                                                            S
2CDT000000474500120121031201210310970300007BB        BEST-F1007                    200710010000000000000F         CL0000000000500000000000000000000000UF    NN         NN00000000OTRA MUTUAL INVERSION SEGURA       NO APLICA                     NACSNRAAA            M2027100100042500TIC365      NON    CUI   CANONO000000000RISKAMERIC   0764625463   000000000000000000000000000000      000000000000000             0000000000000    00  000000000X000000000000000000000000000000000000000000000000000000000000000000000000000000000000000000000000000000000000000000000000000000000000000000000000000000  000000000000X                                                            0000000000000000000000000000                                                            09876000000011184055+0044306+00443060000000050409060000013895642+00153000000017006543+00000000025400000000013893DCV                                                            S
2CDT000000479800120121130201211300970300007BB        BEST-F1007                    200710010000000000000F         CL0000000000500000000000000000000000UF    NN         NN00000000OTRA MUTUAL INVERSION SEGURA       NO APLICA                     NACSNRAAA            M2027100100042500TIC365      NON    CUI   CANONO000000000RISKAMERIC   0764625463   000000000000000000000000000000      000000000000000             0000000000000    00  000000000X000000000000000000000000000000000000000000000000000000000000000000000000000000000000000000000000000000000000000000000000000000000000000000000000000000  000000000000X                                                            0000000000000000000000000000                                                            09876000000011296697+0044306+00443060000000050409060000013895642+00153000000017006543+00000000025400000000013893DCV                                                            S
2CDT000000485400120121231201212310970300007BB        BESTJ41008                    200810010000000000000J4        CL0000000000500000000000000000000000UF    NN         NN00000000OTRA MUTUAL INVERSION SEGURA       NO APLICA                     NACSNRAAA            M2028100100040000TIC365      NON    CUI   CANONO000000000RISKAMERIC   0764625463   000000000000000000000000000000      000000000000000             0000000000000    00  000000000X000000000000000000000000000000000000000000000000000000000000000000000000000000000000000000000000000000000000000000000000000000000000000000000000000000  000000000000X                                                            0000000000000000000000000000                                                            09665000000010961666+0044500+00445000000000049273490000013582613+00156000000016972294+00000000024490000000013581DCV                                                            S
2CDT000000494100120130131201301310970300007BB        BESTJ41008                    200810010000000000000J4        CL0000000000500000000000000000000000UF    NN         NN00000000OTRA MUTUAL INVERSION SEGURA       NO APLICA                     NACSNRAAA            M2028100100040000TIC365      NON    CUI   CANONO000000000RISKAMERIC   0764625463   000000000000000000000000000000      000000000000000             0000000000000    00  000000000X000000000000000000000000000000000000000000000000000000000000000000000000000000000000000000000000000000000000000000000000000000000000000000000000000000  000000000000X                                                            0000000000000000000000000000                                                            09665000000010985693+0044500+00445000000000049273490000013582613+00156000000016972294+00000000024490000000013581DCV                                                            S
2CDT000000498800120130228201302280970300007BB        BESTJ41008                    200810010000000000000J4        CL0000000001500000000000000000000000UF    NN         NN00000000OTRA MUTUAL INVERSION SEGURA       NO APLICA                     NACSNRAAA            M2028100100040000TIC365      NON    CUI   CANONO000000000RISKAMERIC   0764625463   000000000000000000000000000000      000000000000000             0000000000000    00  000000000X000000000000000000000000000000000000000000000000000000000000000000000000000000000000000000000000000000000000000000000000000000000000000000000000000000  000000000000X                                                            0000000000000000000000000000                                                            09665000000033111614+0044500+00445000000000147820480000040747839+00156000000050916881+00000000073470000000040741DCV                                                            S
2CDT000000512400120130430201304300970300007BB        BESTJ41008                    200810010000000000000J4        CL0000000001500000000000000000000000UF    NN         NN00000000OTRA MUTUAL INVERSION SEGURA       NO APLICA                     NACSNRAAA            M2028100100040000TIC365      NON    CUI   CANONO000000000RISKAMERIC   0764625463   000000000000000000000000000000      000000000000000             0000000000000    00  000000000X000000000000000000000000000000000000000000000000000000000000000000000000000000000000000000000000000000000000000000000000000000000000000000000000000000  000000000000X                                                            0000000000000000000000000000                                                            09665000000032819105+0044500+00445000000000147820480000040747839+00156000000050916881+00000000073470000000040741DCV                                                            S
2CDT000000518900120130531201305310970300007BB        BESTJ41008                    200810010000000000000J4        CL0000000002000000000000000000000000UF    NN         NN00000000OTRA MUTUAL INVERSION SEGURA       NO APLICA                     NACSNRAAA            M2028100100040000TIC365      NON    CUI   CANONO000000000RISKAMERIC   0764625463   000000000000000000000000000000      000000000000000             0000000000000    00  000000000X000000000000000000000000000000000000000000000000000000000000000000000000000000000000000000000000000000000000000000000000000000000000000000000000000000  000000000000X                                                            0000000000000000000000000000                                                            09665000000043819666+0044500+00445000000000197093970000054330452+00156000000067889174+00000000097950000000054320DCV                                                            S
2CDT00000054570012013093020130930096722460KBE        BMGAS-D2                      200106010025920010711D2        CL0000000002500000000000000025000000UF    NN         NN00000000OTRA MUTUAL INVERSION SEGURA       NO APLICA                     NACSNRAA-            M2026060100065000TIC365      NON    CUI   CANONO000000000RISKAMERIC   0764625463   000000000000000000000000000000      000000000000000             0000000000000    00  000000000X000000000000000000000000000000000000000000000000000000000000000000000000000000000000000000000000000000000000000000000000000000000000000000000000000000  000000000000X                                                            0000000000000000000000000000                                                            10217000000060889723+0061000+00610000000000260764750000071881786+00153000000093086807+00000000317520000000071850DCV                                                            S
2CDT00000055860012013112920131129096722460KBE        BMGAS-D2                      200106010025920010711D2        CL0000000002500000000000000025000000UF    NN         NN00000000OTRA MUTUAL INVERSION SEGURA       NO APLICA                     NACSNRAA-            M2026060100065000TIC365      NON    CUI   CANONO000000000RISKAMERIC   0764625463   000000000000000000000000000000      000000000000000             0000000000000    00  000000000X000000000000000000000000000000000000000000000000000000000000000000000000000000000000000000000000000000000000000000000000000000000000000000000000000000  000000000000X                                                            0000000000000000000000000000                                                            10273000000062376288+0060000+00600000000000262194020000072275774+00153000000093086807+00000000320280000000072244DCV                                                            S
